:103E0000F894112424B614BE2EBA8DE0822119F044
:103E100040E0E5D0F5C0259A2D9A4EE0E0D020E0B4
:103E200031E0A895489BFECF82E08093C0007EE001
:103E30007093C2001092810010928500109284004D
:103E400081E04899FECF489BFECF8093810048993E
:103E5000FECF489BFECF80918400909185000E9705
:103E6000C5E096958795CA95E1F79093C500809334
:103E7000C40088E18093C1007FC090D0813461F498
:103E80008DD0582F7ED083E0523821F083E0513816
:103E900009F486E77BD05DC044E1823419F045E047
:103EA000853411F46BD055C0853541F477D0482E58
:103EB00075D0582E440C551CF2015EC0863521F495
:103EC00044E05CD080E0E6CF843609F02EC075D0A7
:103ED00021F088E3581608F47DD0E9015FD089937A
:103EE0001197E1F7D801E9014CD0611009C0A895FC
:103EF00089915DD080BDFA9AF99A1197C1F729C0CE
:103F000088E3581608F066D061D0F2010990199044
:103F100041E062D0112432961297C1F7F20145E0D8
:103F20005BD054D041E158D014C08437A9F445D0B7
:103F300028D0662039F4119758F039D0F89A80B516
:103F400025D0F9CFF201E901859120D01197E1F751
:103F50002F0180E11BD091CF853741F449F411D076
:103F60008EE114D084E912D086E094CF803299F3A8
:103F7000813511F448E033D004D0EBCF0FD041505D
:103F8000E9F70CD0803209F030D084E19091C00084
:103F900095FFFCCF8093C600A89508958091C0003E
:103FA00087FFFCCF84FFA8958091C6000895F999FA
:103FB000FECFF2BDE1BD31960895F0DF182FEEDFA0
:103FC000082FD801EBDF8554682E089507B600FC52
:103FD000FDCF0895F20143E047BFE895089558E109
:103FE0005093600040936000089548E0F8DFFFCFF1
:023FFE00037648
:0400000300003E00BB
:00000001FF
