:101E0000F894112484E08EBF8FE58DBF24B614BEF4
:101E100023BC8DE0822121F040E0C7D023B4F0C084
:101E2000BD9A4EE0C2D020E630E0909A82E08BB9B5
:101E30009EE890BD90E199B988E18AB953E0C59ACE
:101E4000B8D028F0C598B5D010F05150C1F78BD05C
:101E5000813461F488D0582F7BD083E0523821F050
:101E600083E0513809F486E778D05AC044E18234DF
:101E700019F045E0853411F468D052C0853541F43D
:101E800072D0482E70D0582E440C551CF2015BC005
:101E9000863521F444E059D080E0E6CF843609F05D
:101EA0002CC06ED019F079D008F47AD0E9015BD05B
:101EB00089931197E1F7D801E9014AD0611009C06F
:101EC000A895899157D08DBBE29AE19A1197C1F7F5
:101ED00027C063D008F064D05CD0F201099019905B
:101EE00041E060D0112432961297C1F7F20145E02B
:101EF00059D04FD041E156D013C08437A1F440D01F
:101F000027D0662039F436D0E09A8DB326D01197C9
:101F1000D1F706C0F201E90185911FD01197E1F7D1
:101F200080E11BD094CF853741F449F411D08EE184
:101F300014D083E912D087E097CF803299F38135AE
:101F400011F448E032D004D0EBCF0DD04150E9F786
:101F50000AD0803209F03DD084E19BB195FFFDCFDE
:101F60008CB9A89508958BB187FFFDCF84FFA89504
:101F70008CB10895E199FECFFFBBEEBB3196089579
:101F8000F2DF182FF0DF082FD801EDDF8554682E1F
:101F9000089507B600FCFDCF089588E1581608950E
:101FA000F20143E047BFE895089558E151BD41BDB6
:101FB00008958CEF8DBD82EF8CBD85E08EBD0894B9
:101FC000809B089588B782FFFACF88BF8894A89530
:081FD000089548E0EADFFFCFAD
:021FFE00037668
:0400000300001E00DB
:00000001FF
