:107E0000F894112424B614BE2EBA8DE0822129F0F4
:107E100040E0E4D0EE27FF2709944EE0DFD020E0D9
:107E200031E0A895489BFECF82E08093C0007EE0C1
:107E30007093C2001092810010928500109284000D
:107E400081E04899FECF489BFECF809381004899FE
:107E5000FECF489BFECF80918400909185000E97C5
:107E6000C5E096958795CA95E1F79093C5008093F4
:107E7000C40088E18093C1007EC08FD0813461F45A
:107E80008CD0582F7DD083E0523821F083E05138D8
:107E900009F484E77AD05CC044E1823419F045E00B
:107EA000853411F46AD054C0853541F476D0482E1B
:107EB00074D0582E440C551CF2015DC0863521F457
:107EC00044E05BD080E0E6CF843609F02EC074D069
:107ED00021F080E7581608F47CD0E9015ED0899340
:107EE0001197E1F7D801E9014BD0611009C0A895BD
:107EF00089915CD080BDFA9AF99A1197C1F728C090
:107F000080E7581608F065D060D0F201099019900A
:107F100041E061D0112432961297C1F7F20145E099
:107F20005AD053D041E157D013C08437A1F444D084
:107F300027D0662039F4119750F038D0F89A80B5E0
:107F400024D0F9CFF201859120D01197E1F72F01CC
:107F500080E11BD092CF853741F449F411D08EE1F6
:107F600014D085E912D08FE095CF803299F3813516
:107F700011F448E033D004D0EBCF0FD04150E9F7F3
:107F80000CD0803209F030D084E19091C00095FF90
:107F9000FCCF8093C600A89508958091C00087FF0C
:107FA000FCCF84FFA8958091C6000895F999FECF73
:107FB000F2BDE1BD31960895F0DF182FEEDF082FF6
:107FC000D801EBDF8554682E089507B600FCFDCF7D
:107FD0000895F20143E047BFE895089558E15093B2
:0E7FE000600040936000089548E0F8DFFFCF96
:027FFE0003740A
:0400000300007E007B
:00000001FF
