:107E000008C0FC010A0167BFE8951124D0D041E108
:107E1000D4C0F894112424B614BE2EBA8DE0822169
:107E200019F040E0CDD0ECC0259A4EE0C9D020E05A
:107E300031E082E08093C0009EE09093C20090E128
:107E40009093C40088E18093C10053E02D9ABED086
:107E500028F02D98BBD010F05150C1F790D081344C
:107E600061F48DD0582F7ED083E0523821F083E02A
:107E7000513809F486E77BD05DC044E1823419F0C3
:107E800045E0853411F46BD055C0853541F477D089
:107E9000482E75D0582E440C551CF2015EC0863514
:107EA00021F444E05CD080E0E6CF843609F02EC0B7
:107EB00075D021F080E7581608F47DD0E9015FD035
:107EC00089931197E1F7D801E9014CD0611009C0FD
:107ED000A89589915DD080BDFA9AF99A1197C1F75A
:107EE00029C080E7581608F066D061D0F2010990E9
:107EF000199041E062D0112432961297C1F7F20135
:107F000045E05BD054D041E158D014C08437A9F487
:107F100045D028D0662039F4119758F039D0F89A16
:107F200080B525D0F9CFF201E901859120D01197D4
:107F3000E1F72F0180E11BD091CF853741F449F45F
:107F400011D08EE114D085E912D084E194CF803233
:107F500099F3813511F448E033D004D0EBCF0FD042
:107F60004150E9F70CD0803209F043D084E1909180
:107F7000C00095FFFCCF8093C600A895089580911E
:107F8000C00087FFFCCF84FFA8958091C6000895AC
:107F9000F999FECFF2BDE1BD31960895F0DF182FBB
:107FA000EEDF082FD801EBDF8554682E089507B661
:107FB00000FCFDCF0895F20143E047BFE895089526
:107FC00058E1509360004093600008958CEF8093D7
:107FD000850082EF8093840085E08093810008947F
:107FE000489B089586B380FFFACF86BB8894A895F6
:087FF000089548E0E5DFFFCF32
:027FFE00037608
:0400000300007E007B
:00000001FF
