:103E000008C0FC010A0167BFE8951124CFD041E149
:103E1000D6C0F894112424B614BE2EBA8DE08221A7
:103E200021F040E0CFD02EB2EBC0259A4EE0CAD0B0
:103E300020E031E0589A82E08093C0009EE09093A9
:103E4000C20090E19093C40088E18093C10053E0E8
:103E50002D9ABED028F02D98BBD010F05150C1F74C
:103E60008DD0813461F48AD0582F7BD083E05238D2
:103E700021F083E0513809F486E778D05AC044E154
:103E8000823419F045E0853411F468D052C085358C
:103E900041F474D0482E72D0582E440C551CF201B7
:103EA0005BC0863521F444E059D080E0E6CF84360B
:103EB00009F02CC072D019F07DD008F47ED0E90151
:103EC0005DD089931197E1F7D801E9014AD06110DB
:103ED00009C0A89589915BD080BDFA9AF99A11978B
:103EE000C1F727C067D008F068D060D0F201099010
:103EF000199041E064D0112432961297C1F7F20173
:103F000045E05DD053D041E15AD013C08437A1F4CD
:103F100044D027D0662039F43AD0F89A80B526D01C
:103F20001197D1F706C0F201E90185911FD01197D1
:103F3000E1F780E11BD094CF853741F449F411D0EB
:103F40008EE114D084E912D086E097CF803299F3C5
:103F5000813511F448E036D004D0EBCF0FD041507A
:103F6000E9F70CD0803209F046D084E19091C0008E
:103F700095FFFCCF8093C600A89508958091C0005E
:103F800087FFFCCF84FFA8958091C6000895F9991A
:103F9000FECFF2BDE1BD31960895F0DF182FEEDFC0
:103FA000082FD801EBDF8554682E089507B600FC72
:103FB000FDCF089588E358160895F20143E047BF06
:103FC000E895089558E1509360004093600008958B
:103FD0008CEF8093850082EF8093840085E080934E
:103FE00081000894489B089586B380FFFACF86BB72
:0C3FF0008894A895089548E0E5DFFFCF15
:023FFE00037648
:0400000300003E00BB
:00000001FF
