:101E000008C0FC010A0167BFE8951124DDD041E15B
:101E1000E1C0F894112484E08EBF8FE58DBF24B615
:101E200014BE23BC8DE0822119F040E0D6D0E8C07A
:101E3000BD9AC59A4EE0D1D020E630E0A895809BAF
:101E4000FECF82E08BB97EE870BD1EBC1DBC1CBC01
:101E500081E08099FECF809BFECF8EBD8099FECF22
:101E6000809BFECF8CB59DB50E97C5E09695879566
:101E7000CA95E1F790BD89B988E18AB97FC08ED053
:101E8000813461F48BD0582F7ED083E0523821F01A
:101E900083E0513809F486E77BD05DC044E18234A9
:101EA00019F045E0853411F46BD055C0853541F407
:101EB00075D0482E73D0582EF201440C551C5EC0CC
:101EC000863521F444E05CD080E0E6CF843609F02A
:101ED0002EC071D021F088E1581608F479D0E901BC
:101EE0005DD089931197E1F7D801E9014CD06110D9
:101EF00009C0A895899159D08DBBE29AE19A1197B2
:101F0000C1F729C088E1581608F062D05DD0F2010F
:101F10000990199041E05ED0112432961297C1F7D2
:101F2000F20145E057D050D041E154D014C084377D
:101F3000A9F441D028D0662039F4119758F035D053
:101F4000E09A8DB325D0F9CFF201E901859120D037
:101F50001197E1F72F0180E11BD091CF853741F434
:101F600049F411D08EE114D083E912D087E094CFE8
:101F7000803299F3813511F448E02FD004D0EBCFB3
:101F80000DD04150E9F70AD0803209F02AD084E11F
:101F90009BB195FFFDCF8CB9A89508958BB187FFB4
:101FA000FDCF84FFA8958CB10895E199FECFFFBBCA
:101FB000EEBB31960895F2DF182FF0DF082FD8011D
:101FC000EDDF8554682E089507B600FCFDCF089517
:101FD000F20143E047BFE895089558E151BD41BD86
:081FE000089548E0FADFFFCF8D
:021FFE00037668
:0400000300001E00DB
:00000001FF
