:107E000008C0FC010A0167BFE8951124D1D041E107
:107E1000D5C0F894112424B614BE2EBA8DE0822168
:107E200029F040E0CED0EE27FF270994259A4EE0B6
:107E3000C8D020E031E082E08093C0009EE09093C3
:107E4000C20090E19093C40088E18093C10053E0A8
:107E50002D9ABDD028F02D98BAD010F05150C1F70E
:107E60008FD0813461F48CD0582F7DD083E052388C
:107E700021F083E0513809F484E77AD05CC044E112
:107E8000823419F045E0853411F46AD054C0853548
:107E900041F476D0482E74D0582E440C551CF20173
:107EA0005DC0863521F444E05BD080E0E6CF8436C7
:107EB00009F02EC074D021F080E7581608F47CD069
:107EC000E9015ED089931197E1F7D801E9014BD020
:107ED000611009C0A89589915CD080BDFA9AF99A81
:107EE0001197C1F728C080E7581608F065D060D018
:107EF000F2010990199041E061D011243296129755
:107F0000C1F7F20145E05AD053D041E157D013C038
:107F10008437A1F444D027D0662039F4119750F06B
:107F200038D0F89A80B524D0F9CFF201859120D0CD
:107F30001197E1F72F0180E11BD092CF853741F4F3
:107F400049F411D08EE114D085E912D08FE095CF9D
:107F5000803299F3813511F448E033D004D0EBCF6F
:107F60000FD04150E9F70CD0803209F043D084E1C2
:107F70009091C00095FFFCCF8093C600A89508950E
:107F80008091C00087FFFCCF84FFA8958091C60038
:107F90000895F999FECFF2BDE1BD31960895F0DF65
:107FA000182FEEDF082FD801EBDF8554682E0895D7
:107FB00007B600FCFDCF0895F20143E047BFE89506
:107FC000089558E1509360004093600008958CEF4D
:107FD0008093850082EF8093840085E08093810008
:107FE0000894489B089586B380FFFACF86BB889497
:0A7FF000A895089548E0E5DFFFCFF3
:027FFE0003740A
:0400000300007E007B
:00000001FF
