:103E0000F894112424B614BE2EBA8DE0822121F03C
:103E100040E0E7D02EB2F4C0259A2D9A4EE0E1D0D2
:103E200020E031E0589AA895489BFECF82E080932D
:103E3000C0007EE07093C200109281001092850055
:103E40001092840081E04899FECF489BFECF80937A
:103E500081004899FECF489BFECF809184009091CD
:103E600085000E97C5E096958795CA95E1F79093E2
:103E7000C5008093C40088E18093C1007CC08DD0D0
:103E8000813461F48AD0582F7BD083E0523821F0FE
:103E900083E0513809F486E778D05AC044E182348F
:103EA00019F045E0853411F468D052C0853541F4ED
:103EB00074D0482E72D0582E440C551CF2015BC0B1
:103EC000863521F444E059D080E0E6CF843609F00D
:103ED0002CC072D019F07DD008F47ED0E9015DD0FD
:103EE00089931197E1F7D801E9014AD0611009C01F
:103EF000A89589915BD080BDFA9AF99A1197C1F77C
:103F000027C067D008F068D060D0F20109901990FE
:103F100041E064D0112432961297C1F7F20145E0D6
:103F20005DD053D041E15AD013C08437A1F444D0BE
:103F300027D0662039F43AD0F89A80B526D0119768
:103F4000D1F706C0F201E90185911FD01197E1F781
:103F500080E11BD094CF853741F449F411D08EE134
:103F600014D084E912D086E097CF803299F381355E
:103F700011F448E036D004D0EBCF0FD04150E9F730
:103F80000CD0803209F033D084E19091C00095FFCD
:103F9000FCCF8093C600A89508958091C00087FF4C
:103FA000FCCF84FFA8958091C6000895F999FECFB3
:103FB000F2BDE1BD31960895F0DF182FEEDF082F36
:103FC000D801EBDF8554682E089507B600FCFDCFBD
:103FD000089588E358160895F20143E047BFE89535
:103FE000089558E15093600040936000089548E0C0
:043FF000F8DFFFCF28
:023FFE00037648
:0400000300003E00BB
:00000001FF
