:101C0000F894112484E08EBF8FE58DBF24B614BEF6
:101C100023BC8DE0822129F040E0DFD0EE27FF27B2
:101C20000994BD9A4EE0D9D020E630E054E0C59A40
:101C3000D8D040F0C598D5D028F05150C1F7A8951C
:101C4000809BFECF82E08BB97EE870BD1EBC1DBCC0
:101C50001CBC81E08099FECF809BFECF8EBD809919
:101C6000FECF809BFECF8CB59DB50E97C5E09695B7
:101C70008795CA95E1F790BD89B988E18AB97EC098
:101C80008DD0813461F48AD0582F7DD083E05238D2
:101C900021F083E0513809F484E77AD05CC044E154
:101CA000823419F045E0853411F46AD054C085358A
:101CB00041F474D0482E72D0582EF201440C551CB9
:101CC0005DC0863521F444E05BD080E0E6CF843609
:101CD00009F02EC070D021F088E1581608F478D0B1
:101CE000E9015CD089931197E1F7D801E9014BD064
:101CF000611009C0A895899158D08DBBE29AE19AEC
:101D00001197C1F728C088E1581608F061D05CD05F
:101D1000F2010990199041E05DD01124329612979A
:101D2000C1F7F20145E056D04FD041E153D013C086
:101D30008437A1F440D027D0662039F4119750F0B1
:101D400034D0E09A8DB324D0F9CFF201859120D020
:101D50001197E1F72F0180E11BD092CF853741F435
:101D600049F411D08EE114D083E912D087E095CFE9
:101D7000803299F3813511F448E02FD004D0EBCFB5
:101D80000DD04150E9F70AD0803209F03AD084E111
:101D90009BB195FFFDCF8CB9A89508958BB187FFB6
:101DA000FDCF84FFA8958CB10895E199FECFFFBBCC
:101DB000EEBB31960895F2DF182FF0DF082FD8011F
:101DC000EDDF8554682E089507B600FCFDCF089519
:101DD000F20143E047BFE895089558E151BD41BD88
:101DE00008958CEF8DBD82EF8CBD85E08EBD08948B
:101DF000809B089588B782FFFACF88BF8894A89502
:081E0000089548E0EADFFFCF7E
:021FFE0003746A
:0400000300001C00DD
:00000001FF
