:101E000008C0FC010A0167BFE8951124DCD041E15C
:101E1000E3C0F894112484E08EBF8FE58DBF24B613
:101E200014BE23BC8DE0822121F040E0D8D023B441
:101E3000E7C0BD9AC59A4EE0D2D020E630E0909A35
:101E4000A895809BFECF82E08BB97EE870BD1EBC5A
:101E50001DBC1CBC81E08099FECF809BFECF8EBD57
:101E60008099FECF809BFECF8CB59DB50E97C5E0C7
:101E700096958795CA95E1F790BD89B988E18AB9A9
:101E80007CC08BD0813461F488D0582F7BD083E024
:101E9000523821F083E0513809F486E778D05AC0EF
:101EA00044E1823419F045E0853411F468D052C021
:101EB000853541F472D0482E70D0582E440C551CF4
:101EC000F2015BC0863521F444E059D080E0E6CFD2
:101ED000843609F02CC06ED019F079D008F47AD08D
:101EE000E9015BD089931197E1F7D801E9014AD064
:101EF000611009C0A895899157D08DBBE29AE19AEB
:101F00001197C1F727C063D008F064D05CD0F2010C
:101F10000990199041E060D0112432961297C1F7D0
:101F2000F20145E059D04FD041E156D013C084377B
:101F3000A1F440D027D0662039F436D0E09A8DB392
:101F400026D01197D1F706C0F201E90185911FD083
:101F50001197E1F780E11BD094CF853741F449F424
:101F600011D08EE114D083E912D087E097CF803270
:101F700099F3813511F448E032D004D0EBCF0DD085
:101F80004150E9F70AD0803209F02DD084E19BB1AD
:101F900095FFFDCF8CB9A89508958BB187FFFDCF34
:101FA00084FFA8958CB10895E199FECFFFBBEEBBED
:101FB00031960895F2DF182FF0DF082FD801EDDFFA
:101FC0008554682E089507B600FCFDCF089588E17A
:101FD00058160895F20143E047BFE895089558E187
:0C1FE00051BD41BD089548E0FADFFFCF7D
:021FFE00037668
:0400000300001E00DB
:00000001FF
